:100000000C948A000C9421050C94FA040C94B20010
:100010000C94B2000C94B2000C94B2000C94B20098
:100020000C94B2000C94B2000C94B2000C94B20088
:100030000C94B2000C94B2000C94B2000C94B20078
:100040000C94B0040C94B2000C947E040C945804EC
:100050000C94B2000C94B2000C94B2000C94B20058
:100060000C94B2000C94B20008000000BE92244927
:10007000123EABAAAA2ABECDCCCC4C3E00000080DA
:10008000BEABAAAAAA3E00000000BF000000803F4D
:100090000000000000084178D3BB4387D1133D190D
:1000A0000E3CC3BD4282AD2B3E68EC8276BED98F3A
:1000B000E1A93E4C80EFFFBE01C4FF7F3F0000007E
:1000C0000000000000080002010000030407000017
:1000D00000000000000000000000250028002B00A8
:1000E00000000000240027002A0004040404040483
:1000F00004040202020202020303030303030102D7
:1001000004081020408001020408102001020408A5
:100110001020480511241FBECFEFD8E0DEBFCDBFB1
:1001200011E0A0E0B1E0E8E7FDE102C005900D922A
:10013000A03FB107D9F726E0A0EFB1E001C01D92C2
:10014000A830B207E1F710E0CAE8D0E004C0219778
:10015000FE010E948F0DC938D107C9F70E94B20570
:100160000C94BA0E0C940000EEEFF1E0A089B18976
:1001700082E08C93A485B5851C92A685B7858FEC0B
:100180008C93108EA489B58986E08C93A289B3895B
:100190008C9180618C93A289B3898C9188608C93B7
:1001A000A289B3898C9180688C930288F389E02DB1
:1001B00080818F7D8083089590E0FC01E250FF4FA5
:1001C000249186519F4FFC018491882399F090E0FF
:1001D000880F991FFC01E052FF4FA591B491FC01DB
:1001E000EA52FF4F859194918FB7F894EC91E22BEE
:1001F000EC938FBF0895AF92BF92CF92DF92EF92B0
:10020000FF920F931F93CF93DF936C017B018B01C0
:10021000040F151FEB015E01AE18BF08C017D10710
:1002200059F06991D601ED91FC910190F081E02D9A
:10023000C6010995892B79F7C501DF91CF911F91EF
:100240000F91FF90EF90DF90CF90BF90AF90089507
:10025000FC01538D448D252F30E0842F90E0821BCC
:10026000930B541710F0CF96089501970895FC0151
:10027000918D828D981761F0A28DAE0FBF2FB11DA9
:100280005D968C91928D9F5F9F73928F90E0089501
:100290008FEF9FEF0895FC01918D828D981731F0BB
:1002A000828DE80FF11D858D90E008958FEF9FEF0F
:1002B0000895FC01918D228D892F90E0805C9F4FE5
:1002C000821B91098F73992708958EEF91E00E9408
:1002D000590121E0892B09F420E0822F089580E064
:1002E00090E0892B29F00E94650181110C94000097
:1002F0000895FC01A48DA80FB92FB11DA35ABF4FBB
:100300002C91848D90E001968F739927848FA68914
:10031000B7892C93A089B1898C91837080648C9368
:10032000938D848D981306C00288F389E02D808117
:100330008F7D80830895EF92FF920F931F93CF9349
:10034000DF93EC0181E0888F9B8D8C8D98131AC010
:10035000E889F989808185FF15C09FB7F894EE89F7
:10036000FF896083E889F989808183708064808354
:100370009FBF81E090E0DF91CF911F910F91FF909F
:10038000EF900895F62E0B8D10E00F5F1F4F0F7347
:100390001127E02E8C8D8E110CC00FB607FCFACF02
:1003A000E889F989808185FFF5CFCE010E94790126
:1003B000F1CFEB8DEC0FFD2FF11DE35AFF4FF082D3
:1003C0009FB7F8940B8FEA89FB8980818062CFCF39
:1003D000CF93DF93EC01888D8823B9F0AA89BB897C
:1003E000E889F9898C9185FD03C0808186FD0DC067
:1003F0000FB607FCF7CF8C9185FFF2CF808185FF88
:10040000EDCFCE010E947901E9CFDF91CF91089520
:1004100090E0FC01EE53FF4F2491FC01E250FF4FAE
:100420003491FC01E651FF4FE491EE23C9F0222301
:1004300039F0233001F1A8F4213019F1223029F1EB
:10044000F0E0EE0FFF1FEA52FF4FA591B4918FB776
:10045000F894EC91611126C030953E233C938FBFF8
:1004600008952730A9F02830C9F0243049F7809149
:1004700080008F7D03C0809180008F778093800003
:10048000DFCF84B58F7784BDDBCF84B58F7DFBCF85
:100490008091B0008F778093B000D2CF8091B00070
:1004A0008F7DF9CF3E2BDACF3FB7F8948091F601DC
:1004B0009091F701A091F801B091F90126B5A89BA0
:1004C00005C02F3F19F00196A11DB11D3FBFBA2FE6
:1004D000A92F982F8827BC01CD01620F711D811DA6
:1004E000911D42E0660F771F881F991F4A95D1F72B
:1004F00008958F929F92AF92BF92CF92DF92EF9228
:10050000FF924B015C010E9454026B017C010E942E
:1005100054026C197D098E099F09683E734081055C
:100520009105A8F321E0821A9108A108B10888EE8C
:10053000C80E83E0D81EE11CF11C81149104A104B3
:10054000B10429F7FF90EF90DF90CF90BF90AF906C
:100550009F908F9008952FB7F8946091F201709159
:10056000F3018091F4019091F5012FBF0895089552
:10057000CF93CFB7F8948091F001811124C0E4EFBC
:10058000F0E08491E8E0F1E09491E82FF0E0EE0FE4
:10059000FF1FE052FF4FA591B491EC91E92321F4A4
:1005A00061E08AE00E9408028AE00E94DC008CB5CB
:1005B00080618CBD8CB580648CBD8DE00E94DC00B8
:1005C0008BE00E94DC008091F0018F5F8093F0014E
:1005D000CFBFCF9108958EBD00000DB407FEFDCFB3
:1005E0008EB508950F931F93CF93DF93082F162F87
:1005F000CBE0D3E060E088890E94080282E00E949C
:10060000EB02802F0E94EB02812F0E94EB0261E03F
:100610008889DF91CF911F910F910C9408021F934D
:10062000CF93DF9300D000D0CDB7DEB7182F613065
:1006300041F51C821B8288E08A83198260E08091E8
:100640001B030E94080282E00E94EB02812F0E949D
:10065000EB0289810E94EB028A810E94EB028B816E
:100660000E94EB028C810E94EB0261E080911B03EF
:100670000F900F900F900F90DF91CF911F910C94DE
:10068000080219821A821C821B82D8CFFF920F9314
:100690001F93CF93DF93F82E062F142FCBE0D3E0D8
:1006A00060E088890E94080285E00E94EB028F2D9D
:1006B0000E94EB02802F0E94EB02812F0E94EB022E
:1006C00061E08889DF91CF911F910F91FF900C9489
:1006D0000802CF93DF93D82F482F60EE8FE00E945F
:1006E000460360E080911B030E94080283E00E94A1
:1006F000EB028FE00E94EB0280E00E94EB02C82F29
:1007000061E080911B030E940802C07E81E0CD134E
:1007100001C080E0DF91CF9108951F93CF93DF93C5
:10072000182FD62FC42F60E089E00E94080285E0D0
:100730000E94EB02812F0E94EB028D2F0E94EB02A0
:100740008C2F0E94EB0261E089E0DF91CF911F9135
:100750000C940802CF93C82F60E089E00E94080241
:1007600083E00E94EB028C2F0E94EB0280E00E944B
:10077000EB02C82F61E089E00E9408028C2FCF9124
:100780000895FC0101900020E9F73197AF01481B63
:10079000590BBC018EEF91E00C94FB008F929F925D
:1007A000AF92BF920F931F93CF93DF93CDB7DEB776
:1007B000A1970FB6F894DEBF0FBECDBF19A242308D
:1007C00008F44AE08E010F5D1F4F842E912CB12C4E
:1007D000A12CA50194010E94990BE62FB901CA0131
:1007E000EA30F4F4E05DD801EE938D01232B242B45
:1007F000252B79F790E080E0109719F0CD010E9449
:10080000C103A1960FB6F894DEBF0FBECDBFDF9136
:10081000CF911F910F91BF90AF909F908F900895AF
:10082000E95CE1CFCF93DF930E94C103EC0188E242
:1008300091E00E94C1038C0F9D1FDF91CF9108951D
:100840000C94C1038BE291E00E94120482E591E0D6
:100850000E9420048CE20E94AA03682F70E090E0BE
:1008600080E042E00E94CE0388E291E00E94C10352
:1008700040E06CE18CE20E948D038DE691E00E94E5
:1008800020048CE20E94AA03682F70E090E080E0D0
:1008900042E00E94CE0388E291E00E94C1038AE216
:1008A00091E00E94120440E06FEF8CE20C948D0303
:1008B0001F920F920FB60F9211242F933F934F93D5
:1008C0005F936F937F938F939F93AF93BF93EF93B8
:1008D000FF938EEF91E00E947901FF91EF91BF911C
:1008E000AF919F918F917F916F915F914F913F91C8
:1008F0002F910F900FBE0F901F9018951F920F927F
:100900000FB60F9211242F938F939F93EF93FF9322
:10091000E0910E02F0910F028081E0911402F091BB
:10092000150282FD1BC09081809117028F5F8F732B
:1009300020911802821741F0E0911702F0E0E25096
:10094000FE4F958F80931702FF91EF919F918F91AA
:100950002F910F900FBE0F901F9018958081F4CFAC
:100960001F920F920FB60F9211242F933F938F93E4
:100970009F93AF93BF938091F2019091F301A09167
:10098000F401B091F5013091F10123E0230F2D37EF
:1009900058F50196A11DB11D2093F1018093F2013C
:1009A0009093F301A093F401B093F5018091F601C7
:1009B0009091F701A091F801B091F9010196A11D64
:1009C000B11D8093F6019093F701A093F801B093C5
:1009D000F901BF91AF919F918F913F912F910F900E
:1009E0000FBE0F901F90189526E8230F0296A11DA9
:1009F000B11DD2CF1F920F920FB60F9211242F93D9
:100A00003F934F935F936F937F938F939F93AF9396
:100A1000BF93EF93FF93E0910201F09103010995D9
:100A2000FF91EF91BF91AF919F918F917F916F91C6
:100A30005F914F913F912F910F900FBE0F901F909C
:100A400018951F920F920FB60F9211242F933F9378
:100A50004F935F936F937F938F939F93AF93BF93C6
:100A6000EF93FF93E0910001F09101010995FF914F
:100A7000EF91BF91AF919F918F917F916F915F9116
:100A80004F913F912F910F900FBE0F901F9018958F
:100A9000CF93DF93EEEFF1E01382128288EE93E0C2
:100AA000A0E0B0E084839583A683B7838AE191E0D8
:100AB0009183808385EC90E09587848784EC90E037
:100AC0009787868780EC90E0918B808B81EC90E01B
:100AD000938B828B82EC90E0958B848B86EC90E0FC
:100AE000978B868B118E128E138E148EEBE9F2E0AB
:100AF0001682178210861186128613861486158632
:100B000016861786108A118A128A138A148A158A01
:100B1000ECE1F3E0138214821682158217821092A0
:100B20000006109201061092020610920306CBE016
:100B3000D3E089E0888B0E94DC0061E088890E9414
:100B40000802E1EEF2E087E197EBA1EDB8E3878FD1
:100B500090A3A1A3B2A38EEE92E0958F848FDF9134
:100B6000CF910895CF93DF93CDB7DEB761970FB6DE
:100B7000F894DEBF0FBECDBF789484B5826084BD8B
:100B800084B5816084BD85B5826085BD85B5816091
:100B900085BD80916E00816080936E00109281000F
:100BA00080918100826080938100809181008160CA
:100BB000809381008091800081608093800080918B
:100BC000B10084608093B1008091B0008160809317
:100BD000B00080917A00846080937A0080917A00DE
:100BE000826080937A0080917A00816080937A009D
:100BF00080917A00806880937A001092C1001092F0
:100C0000DD021092DE021092DF021092E0021092DA
:100C10009D0210929E0210929F021092A0020E94CA
:100C2000AB024B015C012B013C0128EB420E2BE097
:100C3000521E611C711C0E94AB02681579058A0561
:100C40009B0528F04616570668067906A0F768EE59
:100C500073E080E090E00E9479020E94B4000E945C
:100C6000AB0260939D0270939E0280939F029093CB
:100C7000A00284E891E00E9420040E94AB024B0194
:100C80005C012B013C013AE0430E511C611C711CBC
:100C90000E94AB02681579058A059B0528F0461667
:100CA000570668067906A0F781E08093B10280E1DB
:100CB00090E00E94950D80931C0390931D038C017E
:100CC0006C0140E1C40ED11C8DE090E00E94950DB6
:100CD000D8018D939D938D01CA16DB06A9F790E08C
:100CE00080E030E020E0E0911C03F0911D03E80F6C
:100CF000F91F0190F081E02DE20FF31F10822F5FAA
:100D00003F4F2D30310579F702968031910549F733
:100D10000E94B40082E294E090930101809300016C
:100D2000809169008C7F816080936900E89A0E94BD
:100D3000B80288E08093F2028091FF02882321F0BC
:100D400085E991E00E941204A4E0CA2EA1E0DA2E07
:100D5000B3EFAB2EB2E0BB2E10E000E0F6016191E4
:100D60006F018091FF02882389F070E090E080E0BD
:100D70004AE00E94CE0382E891E00E9420040730FE
:100D8000110521F48AE291E00E941204F6013197E4
:100D90008081D5018D935D010F5F1F4F08301105D4
:100DA000E9F684E490E0A0E0B0E08093E402909360
:100DB000E502A093E602B093E70288E08093EE029A
:100DC00080E88093EF021092F1021092F0028CE121
:100DD00093E09093FC028093FB020E94B80260E0D3
:100DE00080911B030E94080280EC0E94EB0261E0EC
:100DF00080911B030E9408026AE070E080E090E0AE
:100E00000E94790280E80E94690381115AC063E060
:100E10008AE20E94F2026AEF89E20E94F20267E827
:100E200088E20E94F20261E080E20E940F0361E02A
:100E300084E20E940F0361E080E00E940F0360E003
:100E400084E00E940F0361E088E00E940F0360E0ED
:100E500080E10E940F0361E084E10E940F0360E0E3
:100E600088E10E940F0310E360E0812F0E94F202EC
:100E700060E080E1810F0E94F20260E080E2810F79
:100E80000E94F2021F5F1E3379F760E080E60E9445
:100E9000F20260E080E70E94F20263E08BE20E94CF
:100EA000F20244E064E680E60E94460340E060E629
:100EB00080E70E94460380E00E946903882309F4CA
:100EC000C8C284ED91E00E94120464E670E080E004
:100ED00090E00E94790281CF0E94AB0262307105DE
:100EE0008105910508F0CDC10E94540200910703CD
:100EF000109108032091090330910A034B015C0112
:100F0000801A910AA20AB30A950184014091040350
:100F1000509105034A01B12CA12C80169106A2061E
:100F2000B30608F0C5C0609307037093080380936D
:100F3000090390930A030E94920ABC01990F880B3F
:100F4000990B0E94A40A20E03EEF4FEF56E40E9466
:100F5000690C9B01AC0160E070E080E89FE30E94B7
:100F6000FC0B0E94120D9058209100033091010358
:100F700040910203509103030E94690C0E94DB0C14
:100F8000709305036093040399249394909206034D
:100F90000091FB021091FC02A090FD02A88AB09083
:100FA000FE02B98A0E945402AB01BC01D801159619
:100FB0002D913C91C9010296880F991F880F991FA6
:100FC000800F911FF801EC51FD4F408051806280ED
:100FD00073804A015B0184189508A608B7082401AC
:100FE0003501DC014D925D926D927C921397F80170
:100FF0008381200F311FF901E05AFD4F8083883033
:1010000009F456C0A889B98990E080E0BD90F80144
:101010002281E22FF0E04F01880C991CF801208119
:101020003181F401E20FF31F0190F081E02DE80F10
:10103000F91FB08201968D30910541F7D8011296C3
:101040008C91129790E0FC01EF54FF4FEE0FFF1FC1
:10105000EE0FFF1FE00FF11F408351836283738304
:10106000880F991F2D913C91820F931FDC01ED9108
:10107000FC91D80115968C911597848712968C91C6
:10108000129790E001968770992712968C93129789
:1010900013968C9113978F5F13968C9313971596D5
:1010A0008D919C911697019616969C938E93159709
:1010B00080E30E94AA0383FDD2C08091230388238A
:1010C000C9F1E0912003B4E0EB9FF0011124E0525C
:1010D000FA4F80809180A280B3800E9454022091B8
:1010E0002003A22FB0E0FD01EE0FFF1F20911C0393
:1010F00030911D03E20FF31F0190F081E02DE48594
:10110000F0E0EE0FFF1FEC54FB4FAB01BC014819A0
:1011100059096A097B095183408310922303CD0149
:101120000196877099278093200380911F03815037
:1011300080931F0380911F038823A9F180912003CE
:1011400090E0880F991F20911C0330911D03820F9E
:10115000931FDC01ED91FC91EC0DFD1D8081EE856E
:10116000FF85808360E089E00E94080282E00E949F
:10117000EB0281E30E94EB028E010F5F1F4FD8014B
:101180008D918D010E94EB020E151F05C1F761E0E4
:1011900089E00E9408024FEF68E080E30E948D031F
:1011A000B1E0B09323038091210390912203843610
:1011B000910509F054C00E9454022B013C0104EB3C
:1011C00014E034E2832E33E0932E4CE7A42E45E066
:1011D000B42EF801619171918F0190E080E04AE0B6
:1011E0000E94CE038AEB91E00E942004D4016D910D
:1011F0007D918D919D914D014AE00E94CE038AEB35
:1012000091E00E942004F50161915F0170E090E09F
:1012100080E04AE00E94CE0382E891E00E9412043E
:1012200020163106B1F60E945402AB01BC01809138
:10123000000690910106A0910206B0910306841960
:101240009509A609B709840F951FA61FB71F80939C
:10125000000690930106A0930206B093030620E0D7
:10126000822E20E0922E892829F00E9465018111AA
:101270000E9400000E94AB02672B682B692B09F4C7
:101280002BCE0E94AB020091FA011091FB0120913C
:10129000FC013091FD01601771078207930708F484
:1012A000CFC00091FA011091FB012091FC01309117
:1012B000FD014B015C01801A910AA20AB30A950153
:1012C00084010A3F11052105310508F40DCE609314
:1012D000FA017093FB018093FC019093FD0124EFD0
:1012E00031E040E050E02093A9023093AA024093FD
:1012F000AB025093AC021092AD021092AE0210926B
:10130000AF021092B0028091A1029091A202A0912E
:10131000A302B091A4028093A5029093A602A09389
:10132000A702B093A8020E94AB026093A10270933F
:10133000A2028093A3029093A4020E94AB02609346
:101340009D0270939E0280939F029093A0020E9440
:10135000AB024B015C0186EA91E00E9420044AE066
:1013600061E070E080E090E00E94CE038DEA91E0C1
:101370000E9420044AE0C501B4010E94CE038FEA16
:1013800091E00E9420048091A1029091A202A0917C
:10139000A302B091A402A5019401281B390B4A0BAA
:1013A0005B0BCA01B9014AE00E94CE038FEA91E0CB
:1013B0000E9420046091A1027091A2028091A30278
:1013C0009091A4020091A5021091A6022091A7027B
:1013D0003091A802601B710B820B930B4AE00E94B4
:1013E000CE0381EB91E00E9420040E94AB024AE010
:1013F0000E94CE0383EB91E00E9412040E94AB0294
:101400002B013C015C014B0135E0830E911CA11CBA
:10141000B11C0E94AB02641575058605970528F07E
:1014200086169706A806B906A0F70E94AB0260933D
:10143000A1027093A2028093A3029093A40254CDC0
:101440006093FA017093FB018093FC019093FD017E
:1014500028CF8CEB91E00E94120440E06FEF80E314
:101460000E948D038AE7282E85E0382ED12CC12CCE
:10147000AA24A394B12CAC0EBD1EAC0CBD1CBF861F
:10148000AE867E012EE0E20EF11CF4CE8F929F928A
:10149000AF92BF92CF92DF92EF92FF92CF93DF9302
:1014A000EC01688179818A819B81611571058105D3
:1014B000910521F464E279ED8BE597E02DE133EFBE
:1014C00041E050E00E94BB0B49015A019B01AC0175
:1014D000A7EAB1E40E94DA0B6B017C01ACEEB4EF39
:1014E000A50194010E94E80BDC01CB018C0D9D1D30
:1014F000AE1DBF1DB7FF03C00197A109B048888387
:101500009983AA83BB839F77DF91CF91FF90EF9060
:10151000DF90CF90BF90AF909F908F9008950E94E2
:10152000460A08958CE091E00E94460A0895B0E0D2
:10153000A0E080930C0190930D01A0930E01B09355
:101540000F010895E89409C097FB3EF490958095AB
:10155000709561957F4F8F4F9F4F9923A9F0F92F79
:1015600096E9BB279395F695879577956795B795F7
:10157000F111F8CFFAF4BB0F11F460FF1BC06F5FDD
:101580007F4F8F4F9F4F16C0882311F096E911C0EF
:10159000772321F09EE8872F762F05C0662371F010
:1015A00096E8862F70E060E02AF09A95660F771F24
:1015B000881FDAF7880F9695879597F908950E9406
:1015C000510B38F00E94580B20F0952311F00C9429
:1015D000480B0C944E0B11240C94930B0E94700B2F
:1015E00070F3959FC1F3950F50E0551F629FF00176
:1015F000729FBB27F00DB11D639FAA27F00DB11D8F
:10160000AA1F649F6627B00DA11D661F829F222717
:10161000B00DA11D621F739FB00DA11D621F839F9E
:10162000A00D611D221F749F3327A00D611D231F74
:10163000849F600D211D822F762F6A2F11249F57C2
:1016400050409AF0F1F088234AF0EE0FFF1FBB1FC5
:10165000661F771F881F91505040A9F79E3F510584
:1016600080F00C94480B0C94930B5F3FE4F3983E8E
:10167000D4F3869577956795B795F795E7959F5F2E
:10168000C1F7FE2B880F911D9695879597F90895C0
:1016900097F99F6780E870E060E008959FEF80EC25
:1016A000089500240A9416161706180609060895C8
:1016B00000240A9412161306140605060895092E2E
:1016C0000394000C11F4882352F0BB0F40F4BF2B9D
:1016D00011F460FF04C06F5F7F4F8F4F9F4F0895DD
:1016E00057FD9058440F551F59F05F3F71F04795D3
:1016F000880F97FB991F61F09F3F79F087950895B8
:10170000121613061406551FF2CF4695F1DF08C0D6
:10171000161617061806991FF1CF869571056105F3
:1017200008940895E894BB2766277727CB0197F99B
:101730000895A1E21A2EAA1BBB1BFD010DC0AA1F12
:10174000BB1FEE1FFF1FA217B307E407F50720F02A
:10175000A21BB30BE40BF50B661F771F881F991FA5
:101760001A9469F760957095809590959B01AC01EE
:10177000BD01CF010895052E97FB1EF400940E9431
:10178000D20B57FD07D00E94990B07FC03D04EF4F3
:101790000C94D20B50954095309521953F4F4F4F6B
:1017A0005F4F089590958095709561957F4F8F4F0D
:1017B0009F4F08950E94ED0BA59F900DB49F900D33
:1017C000A49F800D911D11240895B7FF0C94DA0B8E
:1017D0000E94DA0B821B930B0895A29FB001B39F66
:1017E000C001A39F700D811D1124911DB29F700D2A
:1017F000811D1124911D08955058BB27AA270E94CE
:10180000140C0C945F0B0E94510B38F00E94580B83
:1018100020F039F49F3F19F426F40C944E0B0EF48B
:10182000E095E7FB0C94480BE92F0E94700B58F3EE
:10183000BA17620773078407950720F079F4A6F5B5
:101840000C94920B0EF4E0950B2EBA2FA02D0B01E9
:10185000B90190010C01CA01A0011124FF27591BF5
:1018600099F0593F50F4503E68F11A16F040A22FFB
:10187000232F342F4427585FF3CF4695379527956C
:10188000A795F0405395C9F77EF41F16BA0B620B6B
:10189000730B840BBAF09150A1F0FF0FBB1F661FB2
:1018A000771F881FC2F70EC0BA0F621F731F841FF5
:1018B00048F4879577956795B795F7959E3F08F01B
:1018C000B0CF9395880F08F09927EE0F97958795DD
:1018D00008950E947D0C0C945F0B0E94580B58F0E9
:1018E0000E94510B40F029F45F3F29F00C94480B03
:1018F00051110C94930B0C944E0B0E94700B68F3D7
:101900009923B1F3552391F3951B550BBB27AA27B8
:1019100062177307840738F09F5F5F4F220F331FF2
:10192000441FAA1FA9F335D00E2E3AF0E0E832D0BA
:1019300091505040E695001CCAF72BD0FE2F29D0BD
:10194000660F771F881FBB1F261737074807AB078F
:10195000B0E809F0BB0B802DBF01FF2793585F4F04
:101960003AF09E3F510578F00C94480B0C94930B81
:101970005F3FE4F3983ED4F3869577956795B795E6
:10198000F7959F5FC9F7880F911D9695879597F9F1
:101990000895E1E0660F771F881FBB1F621773076A
:1019A0008407BA0720F0621B730B840BBA0BEE1F7F
:1019B00088F7E09508950E94780B88F09F5798F07B
:1019C000B92F9927B751B0F0E1F0660F771F881F44
:1019D000991F1AF0BA95C9F714C0B13091F00E945E
:1019E000920BB1E008950C94920B672F782F882703
:1019F000B85F39F0B93FCCF3869577956795B39585
:101A0000D9F73EF490958095709561957F4F8F4FF3
:101A10009F4F089516F00C945A0D0C944E0B689439
:101A20000C94480B0E94780BA8F39923C1F3AEF3F2
:101A3000DF93CF931F930F93FF92C92FDD27882346
:101A40002AF02197660F771F881FDAF720E030E031
:101A500040E85FEB9FE3883920F0803E38F0219624
:101A60008F770E94FD0BE8E6F0E004C00E94FD0BBA
:101A7000E5E9F0E00E94680D8B01BE01EC01FB2E50
:101A80006F5771097595771F880B990B0E94A40AEF
:101A900028E132E741E35FE30E94EE0AAF2D9801AF
:101AA000AE01FF900F911F91CF91DF910E94140C16
:101AB0000C945F0B9F3F31F0915020F48795779500
:101AC0006795B795880F911D9695879597F9089515
:101AD000DF93CF931F930F93FF92EF92DF927B01DF
:101AE0008C01689406C0DA2EEF010E94EE0AFE0116
:101AF000E894A5912591359145915591A6F3EF0173
:101B00000E94140CFE019701A801DA9469F7DF9096
:101B1000EF90FF900F911F91CF91DF910895EE0FFD
:101B2000FF1F0590F491E02D09940F931F93CF931D
:101B3000DF938230910510F482E090E0E091060698
:101B4000F091070630E020E0B0E0A0E0309799F493
:101B50002115310509F44AC0281B390B2430310501
:101B6000D8F58A819B816115710589F1FB01938309
:101B70008283FE0111C04081518102811381481787
:101B80005907E0F04817590799F4109761F0129639
:101B90000C93129713961C933296CF01DF91CF913D
:101BA0001F910F9108950093060610930706F4CF36
:101BB0002115310551F04217530738F0A901DB0117
:101BC0009A01BD01DF01F801C1CFEF01F9CF909378
:101BD000070680930606CDCFFE01E20FF31F819327
:101BE00091932250310939832883D7CF209104065D
:101BF00030910506232B41F42091120130911301FD
:101C000030930506209304062091100130911101B4
:101C10002115310541F42DB73EB740911401509183
:101C20001501241B350BE0910406F0910506E2171F
:101C3000F307A0F42E1B3F0B2817390778F0AC01EF
:101C40004E5F5F4F2417350748F04E0F5F1F5093CC
:101C5000050640930406819391939FCFF0E0E0E066
:101C60009CCFCF93DF930097E9F0FC01329713826A
:101C70001282A0910606B0910706ED0130E020E047
:101C80001097A1F420813181820F931F20910406C7
:101C9000309105062817390709F061C0F093050651
:101CA000E0930406DF91CF910895EA01CE17DF0794
:101CB000E8F54A815B819E0141155105B1F7E901C3
:101CC000FB83EA8349915991C40FD51FEC17FD0797
:101CD00061F4808191810296840F951FE9019983B7
:101CE0008883828193819B838A83F0E0E0E012966F
:101CF0008D919C9113970097B9F52D913C91119777
:101D0000CD010296820F931F2091040630910506A3
:101D10002817390739F6309751F5109207061092B7
:101D20000606B0930506A0930406BCCFD383C283F6
:101D300040815181840F951FC817D90761F44E5F08
:101D40005F4F88819981480F591F518340838A8151
:101D50009B81938382832115310509F0B0CFF093E5
:101D60000706E09306069ECFFD01DC01C0CF13827B
:081D70001282D7CFF894FFCFD7
:101D7800B702B702AA55CC330FF00F0001000000DC
:101D8800000008068000000000009B01FB002801FD
:101D9800E801590137014B010D0A004D6573736164
:101DA80067652073656E742C205265736574746959
:101DB8006E6720696E7465727275707420666C61E6
:101DC800670043414E494E5446206166746572204F
:101DD800696E74657272757074203D200043414EBF
:101DE800494E544620616674657220726573657445
:101DF800203D2000564D4450565F317C315F564D92
:101E08004450560A0053657474696E67206D657393
:101E1800736167653A00564D4450455F003A323A5F
:101E2800007C005F564D445045002C0043414E2035
:101E380042555320536869656C6420696E69742043
:101E48006F6B210020496E69742043414E20425532
:101E58005320536869656C6420616761696E00008E
:00000001FF
