:100000000C948A000C94B2000C94B2000C94B200D0
:100010000C94B2000C94B2000C94B2000C94B20098
:100020000C94B2000C94B2000C94B2000C948D04A9
:100030000C94B2000C94B2000C94B2000C94B20078
:100040000C9443040C94B2000C9411040C94EB0334
:100050000C94B2000C94B2000C94B2000C94B20058
:100060000C94B2000C94B20008000000BE92244927
:10007000123EABAAAA2ABECDCCCC4C3E00000080DA
:10008000BEABAAAAAA3E00000000BF000000803F4D
:100090000000000000084178D3BB4387D1133D190D
:1000A0000E3CC3BD4282AD2B3E68EC8276BED98F3A
:1000B000E1A93E4C80EFFFBE01C4FF7F3F0000007E
:1000C0000000000000080002010000030407000017
:1000D00000000000000000000000250028002B00A8
:1000E00000000000240027002A0004040404040483
:1000F00004040202020202020303030303030102D7
:1001000004081020408001020408102001020408A5
:1001100010209C0411241FBECFEFD8E0DEBFCDBF5E
:1001200011E0A0E0B1E0E6E7FAE102C005900D922F
:10013000AE39B107D9F724E0AEE9B1E001C01D92B4
:10014000A936B207E1F710E0CAE8D0E004C0219771
:10015000FE010E940E0CC938D107C9F70E940005A4
:100160000C94390D0C94000090E0FC01E250FF4F1C
:10017000249186519F4FFC018491882399F090E04F
:10018000880F991FFC01E052FF4FA591B491FC012B
:10019000EA52FF4F859194918FB7F894EC91E22B3E
:1001A000EC938FBF0895AF92BF92CF92DF92EF9200
:1001B000FF920F931F93CF93DF936C017B018B0111
:1001C000040F151FEB015E01AE18BF08C017D10761
:1001D00059F06991D601ED91FC910190F081E02DEB
:1001E000C6010995892B79F7C501DF91CF911F9140
:1001F0000F91FF90EF90DF90CF90BF90AF90089558
:10020000FC01538D448D252F30E0842F90E0821B1C
:10021000930B541710F0CF96089501970895FC01A1
:10022000918D828D981761F0A28DAE0FBF2FB11DF9
:100230005D968C91928D9F5F9F73928F90E0089551
:100240008FEF9FEF0895FC01918D828D981731F00B
:10025000828DE80FF11D858D90E008958FEF9FEF5F
:100260000895FC01918D228D892F90E0805C9F4F35
:10027000821B91098F739927089588EA91E00E9463
:10028000310121E0892B09F420E0822F089580E0DC
:1002900090E0892B29F00E943D0181110C9400000F
:1002A0000895FC01A48DA80FB92FB11DA35ABF4F0B
:1002B0002C91848D90E001968F739927848FA68965
:1002C000B7892C93A089B1898C91837080648C93B9
:1002D000938D848D981306C00288F389E02D808168
:1002E0008F7D80830895EF92FF920F931F93CF939A
:1002F000DF93EC0181E0888F9B8D8C8D98131AC061
:10030000E889F989808185FF15C09FB7F894EE8947
:10031000FF896083E889F9898081837080648083A4
:100320009FBF81E090E0DF91CF911F910F91FF90EF
:10033000EF900895F62E0B8D10E00F5F1F4F0F7397
:100340001127E02E8C8D8E110CC00FB607FCFACF52
:10035000E889F989808185FFF5CFCE010E9451019E
:10036000F1CFEB8DEC0FFD2FF11DE35AFF4FF08223
:100370009FB7F8940B8FEA89FB8980818062CFCF89
:10038000CF93DF93EC01888D8823B9F0AA89BB89CC
:10039000E889F9898C9185FD03C0808186FD0DC0B7
:1003A0000FB607FCF7CF8C9185FFF2CF808185FFD8
:1003B000EDCFCE010E945101E9CFDF91CF91089599
:1003C00090E0FC01EE53FF4F2491FC01E250FF4FFF
:1003D0003491FC01E651FF4FE491EE23C9F0222352
:1003E00039F0233001F1A8F4213019F1223029F13C
:1003F000F0E0EE0FFF1FEA52FF4FA591B4918FB7C7
:10040000F894EC91611126C030953E233C938FBF48
:1004100008952730A9F02830C9F0243049F7809199
:1004200080008F7D03C0809180008F778093800053
:10043000DFCF84B58F7784BDDBCF84B58F7DFBCFD5
:100440008091B0008F778093B000D2CF8091B000C0
:100450008F7DF9CF3E2BDACF3FB7F8948091A00182
:100460009091A101A091A201B091A30126B5A89BF2
:1004700005C02F3F19F00196A11DB11D3FBFBA2F36
:10048000A92F982F8827BC01CD01620F711D811DF6
:10049000911D42E0660F771F881F991F4A95D1F77B
:1004A00008958F929F92AF92BF92CF92DF92EF9278
:1004B000FF924B015C010E942C026B017C010E94A7
:1004C0002C026C197D098E099F09683E73408105D5
:1004D0009105A8F321E0821A9108A108B10888EEDD
:1004E000C80E83E0D81EE11CF11C81149104A10404
:1004F000B10429F7FF90EF90DF90CF90BF90AF90BD
:100500009F908F900895CF93CFB7F89480919E01DC
:10051000811124C0E4EFF0E08491E8E0F1E09491EF
:10052000E82FF0E0EE0FFF1FE052FF4FA591B491CE
:10053000EC91E92321F461E08AE00E94E0018AE085
:100540000E94B4008CB580618CBD8CB580648CBD7C
:100550008DE00E94B4008BE00E94B40080919E0167
:100560008F5F80939E01CFBFCF9108958EBD000015
:100570000DB407FEFDCF8EB508950F931F93CF9353
:10058000DF93082F162FCFE6D2E060E088890E9423
:10059000E00182E00E94B602802F0E94B602812F05
:1005A0000E94B60261E08889DF91CF911F910F917F
:1005B0000C94E0011F93CF93DF9300D000D0CDB710
:1005C000DEB7182F613041F51C821B8288E08A83D8
:1005D000198260E080917F020E94E00182E00E9427
:1005E000B602812F0E94B60289810E94B6028A81DA
:1005F0000E94B6028B810E94B6028C810E94B602D4
:1006000061E080917F020F900F900F900F90DF912B
:10061000CF911F910C94E00119821A821C821B82D7
:10062000D8CFFF920F931F93CF93DF93F82E062F0F
:10063000142FCFE6D2E060E088890E94E00185E0D7
:100640000E94B6028F2D0E94B602802F0E94B60231
:10065000812F0E94B60261E08889DF91CF911F91BE
:100660000F91FF900C94E001CF93DF93D82F482F88
:1006700060EE8FE00E94110360E080917F020E9493
:10068000E00183E00E94B6028FE00E94B60280E0A3
:100690000E94B602C82F61E080917F020E94E001B3
:1006A000C07E81E0CD1301C080E0DF91CF9108953D
:1006B0001F93CF93DF93182FD62FC42F60E089E0CC
:1006C0000E94E00185E00E94B602812F0E94B602DE
:1006D0008D2F0E94B6028C2F0E94B60261E089E045
:1006E000DF91CF911F910C94E001CF93C82F60E070
:1006F00089E00E94E00183E00E94B6028C2F0E94F4
:10070000B60280E00E94B602C82F61E089E00E9434
:10071000E0018C2FCF910895FC0101900020E9F7B2
:100720003197AF01481B590BBC0188EA91E00C944A
:10073000D3008F929F92AF92BF920F931F93CF934C
:10074000DF93CDB7DEB7A1970FB6F894DEBF0FBE2B
:10075000CDBF19A2423008F44AE08E010F5D1F4F51
:10076000842E912CB12CA12CA50194010E94530937
:10077000E62FB901CA01EA30F4F4E05DD801EE9346
:100780008D01232B242B252B79F790E080E0109707
:1007900019F0CD010E948C03A1960FB6F894DEBF2C
:1007A0000FBECDBFDF91CF911F910F91BF90AF9042
:1007B0009F908F900895E95CE1CFCF93DF930E94E3
:1007C0008C03EC0184E291E00E948C038C0F9D1F4E
:1007D000DF91CF9108951F920F920FB60F921124BF
:1007E0002F933F934F935F936F937F938F939F9339
:1007F000AF93BF93EF93FF9388EA91E00E9451017A
:10080000FF91EF91BF91AF919F918F917F916F91E8
:100810005F914F913F912F910F900FBE0F901F90BE
:1008200018951F920F920FB60F9211242F938F934A
:100830009F93EF93FF93E091B801F091B90180810C
:10084000E091BE01F091BF0182FD1BC090818091BB
:10085000C1018F5F8F732091C201821741F0E09137
:10086000C101F0E0E855FE4F958F8093C101FF91E3
:10087000EF919F918F912F910F900FBE0F901F902E
:1008800018958081F4CF1F920F920FB60F9211240A
:100890002F933F938F939F93AF93BF938091A40126
:1008A0009091A501A091A601B091A70130919F015F
:1008B00023E0230F2D3758F50196A11DB11D20937C
:1008C0009F018093A4019093A501A093A601B093EA
:1008D000A7018091A0019091A101A091A201B091E6
:1008E000A3010196A11DB11D8093A0019093A101C8
:1008F000A093A201B093A301BF91AF919F918F915B
:100900003F912F910F900FBE0F901F90189526E8E2
:10091000230F0296A11DB11DD2CF1F920F920FB6C9
:100920000F9211248F9381E080939B028F910F90FF
:100930000FBE0F901F901895CF93DF93E8EAF1E078
:100940001382128288EE93E0A0E0B0E08483958366
:10095000A683B78386E191E09183808385EC90E064
:100960009587848784EC90E09787868780EC90E079
:10097000918B808B81EC90E0938B828B82EC90E06A
:10098000958B848B86EC90E0978B868B118E128EE4
:10099000138E148EE0E8F2E0148213821582168A18
:1009A000158A178A108E118E138E81E0848F858FA1
:1009B000868F1092CC021092CB021092CE0210922F
:1009C000CD021092D4021092D302CFE6D2E089E099
:1009D000888B0E94B40061E088890E94E001E5E410
:1009E000F2E087EE9EE3ABEBBAE3878F90A3A1A37F
:1009F000B2A382E592E0958F848FDF91CF91089525
:100A0000789484B5826084BD84B5816084BD85B5E9
:100A1000826085BD85B5816085BD80916E008160F5
:100A200080936E001092810080918100826080939B
:100A3000810080918100816080938100809180009D
:100A40008160809380008091B10084608093B100C8
:100A50008091B00081608093B00080917A008460C2
:100A600080937A0080917A00826080937A008091EE
:100A70007A00816080937A0080917A008068809308
:100A80007A001092C10080E190E00E94140C8093E3
:100A9000800290938102EC018C01005F1F4F8DE07A
:100AA00090E00E94140C89939993C017D107B9F76D
:100AB00090E080E030E020E0E0918002F09181025F
:100AC000E80FF91F0190F081E02DE20FF31F108273
:100AD0002F5F3F4F2D30310579F702968031910518
:100AE00049F7E091B801F091B90182E08083E0918B
:100AF000B401F091B5011082E091B601F091B70117
:100B00008FEC80831092C001E091BC01F091BD0197
:100B100086E08083E091BA01F091BB018081806121
:100B20008083E091BA01F091BB018081886080836D
:100B3000E091BA01F091BB01808180688083E091EF
:100B4000BA01F091BB0180818F7D80830E94830276
:100B500084E08093560280916302882321F087E22B
:100B600091E00E94DD03C0E0D1E007E512E0699169
:100B700080916302882351F070E090E080E04AE0C9
:100B80000E94990380E891E00E948C03FE01319756
:100B90008081D8018D938D01B1E0C430DB0739F736
:100BA00084E490E0A0E0B0E0809348029093490292
:100BB000A0934A02B0934B0288E08093520280E8EF
:100BC0008093530210925502109254022FB7F8945A
:100BD0008091A4019091A501A091A601B091A701D7
:100BE0002FBF0E94160980E892E0909360028093E4
:100BF0005F02F89482E080936F00109281008091F0
:100C00008100846080938100809181008160809365
:100C10008100809181008860809381001092800023
:100C200080E593EC909389008093880078940E94EB
:100C3000830260E080917F020E94E00180EC0E94CC
:100C4000B60261E080917F020E94E0016AE070E0FC
:100C500080E090E00E94510280E80E9434038111FC
:100C60005AC063E08AE20E94BD026AEF89E20E94F4
:100C7000BD0267E888E20E94BD0261E080E20E9456
:100C8000DA0261E084E20E94DA0261E080E00E9420
:100C9000DA0260E084E00E94DA0261E088E00E940B
:100CA000DA0260E080E10E94DA0261E084E10E9401
:100CB000DA0260E088E10E94DA02C0E360E08C2F93
:100CC0000E94BD0260E080E18C0F0E94BD0260E0E6
:100CD00080E28C0F0E94BD02CF5FCE3379F760E0D7
:100CE00080E60E94BD0260E080E70E94BD0263E0F2
:100CF0008BE20E94BD0244E064E680E60E9411039C
:100D000040E060E680E70E94110380E00E94340327
:100D1000882309F445C082E891E00E94DD0364E67F
:100D200070E080E090E00E94510281CF61918A8161
:100D300090E0880F991F48815981840F951FDC012D
:100D40008D919C91DC01A20FB31F6C932F5F3F4FDD
:100D50002D30310559F78A8190E0FC01EE0FFF1F1D
:100D6000EE0FFF1FEC0FFD1F478E50A261A272A273
:100D7000880F991F28813981820F931FDC01ED9123
:100D8000FC91D5018C9184878A8190E001968770CF
:100D900099278A838B819C8101969C838B83A3C036
:100DA0008AE391E00E94DD034FEF6CE18BE20E9449
:100DB000580382E591E00E948C038BE20E94750348
:100DC000682F70E090E080E042E00E94990384E2A6
:100DD00091E00E948C0340E06FEF80E30E94580393
:100DE00081E080939A0285E6E82E84E0F82E00E008
:100DF00010E0DD24D3940E942C0280906B0290902E
:100E00006C02A0906D02B0906E029B01AC0128199B
:100E100039094A095B0949015A0120916802309158
:100E200069022901712C612C481459046A047B045D
:100E300008F059C060936B0270936C0280936D024E
:100E400090936E020E941109BC01990F880B990BB7
:100E50000E94940A20E03EEF4FEF56E40E94F10911
:100E60009B01AC0160E070E080E89FE30E94840990
:100E70000E94280B905820916402309165024091A5
:100E80006602509167020E94F1090E94630A709302
:100E9000690260936802D0926A02C0915F02D091A9
:100EA000600280906102909062025E0133E5A30EC1
:100EB000B11CD5018D919C91119701968D939C93B6
:100EC0000E942C022B013C018B819C81F40130E0BB
:100ED00020E0089709F02ACFC55BDF4F8881998110
:100EE00001969983888380E30E94750383FFD092E3
:100EF0009C0280919C02882309F49BC080919702F8
:100F00008823D1F10E942C028090890290908A025D
:100F1000A0908B02B0908C02AB01BC01481959091A
:100F20006A097B098091BF029091C002A091C10221
:100F3000B091C202840F951FA61FB71F8093BF02F6
:100F40009093C002A093C102B093C2028091CD02DF
:100F50009091CE02FC01EE0FFF1FEE0FFF1FEB5230
:100F6000FD4F4083518362837383109297020196F1
:100F70009093CE028093CD0280918302909184025F
:100F8000892B09F456C08091850290E0880F991F43
:100F9000E0918002F0918102E80FF91FA080B180FA
:100FA00060E089E00E94E00182E00E94B60281E3F5
:100FB0000E94B602E5015E01BDE0AB0EB11C899155
:100FC0000E94B602AC16BD06D1F761E089E00E942E
:100FD000E0014FEF68E080E30E9458032091850212
:100FE000822F90E0FC01EE0FFF1FEE0FFF1FE05875
:100FF000FD4F478D50A161A172A14093890250938A
:101000008A0260938B0270938C02D09297021092A6
:101010009C0220938602019687709927809385020F
:10102000809183029091840201979093840280932F
:1010300083028091CD029091CE028436910508F40E
:1010400098C00E942C024B015C018092C7029092D2
:10105000C802A092C902B092CA0280919B02882362
:1010600009F46FC04090C3025090C4026090C50262
:101070007090C6026091D5027091D6028091D7021D
:101080009091D8024AE00E94990388E391E00E947F
:101090008C03C501B40164197509860997094AE0F2
:1010A0000E94990388E391E00E948C036091CB0237
:1010B0007091CC0290E080E04AE00E94990388E3BE
:1010C00091E00E948C036091D3027091D40290E071
:1010D00080E04AE00E94990384E291E00E948C0340
:1010E000C9EDD2E069917991899199914AE00E9484
:1010F000990384E291E00E948C03EC16FD0691F7BF
:1011000090E080E030E020E0E0918002F091810208
:10111000E80FF91F0190F081E02DE20FF31F10821C
:101120002F5F3F4F2D30310579F7029680319105C1
:1011300049F7109282021092850210928402109256
:10114000830210929B020E942C026093C302709350
:10115000C4028093C5029093C6021092CC021092F2
:10116000CB021092CE021092CD021092D4021092B5
:10117000D3020115110509F43ECE0E943D018823DA
:1011800009F439CE0E94000036CE8F929F92AF9222
:10119000BF92CF92DF92EF92FF92CF93DF93EC0159
:1011A000688179818A819B8161157105810591052D
:1011B00021F464E279ED8BE597E02DE133EF41E036
:1011C00050E00E94210949015A019B01AC01A7EAA4
:1011D000B1E40E9440096B017C01ACEEB4EFA501C3
:1011E00094010E944E09DC01CB018C0D9D1DAE1DAA
:1011F000BF1DB7FF03C00197A109B0488883998339
:10120000AA83BB839F77DF91CF91FF90EF90DF9010
:10121000CF90BF90AF909F908F9008950E94C50887
:10122000089588E091E00E94C5080895B0E0A0E02C
:101230008093080190930901A0930A01B0930B01D8
:101240000895052E97FB1EF400940E94380957FD5F
:1012500007D00E94530907FC03D04EF40C943809C0
:1012600050954095309521953F4F4F4F5F4F0895D2
:1012700090958095709561957F4F8F4F9F4F089502
:101280000E947509A59F900DB49F900DA49F800D9D
:10129000911D11240895B7FF0C9440090E94400944
:1012A000821B930B0895A1E21A2EAA1BBB1BFD0102
:1012B0000DC0AA1FBB1FEE1FFF1FA217B307E40735
:1012C000F50720F0A21BB30BE40BF50B661F771F8D
:1012D000881F991F1A9469F760957095809590956D
:1012E0009B01AC01BD01CF010895A29FB001B39F46
:1012F000C001A39F700D811D1124911DB29F700D1F
:10130000811D1124911D08955058BB27AA270E94C2
:101310009C090C94E60A0E94D80A38F00E94DF0A61
:1013200020F039F49F3F19F426F40C94D50A0EF4FA
:10133000E095E7FB0C94CF0AE92F0E94F70A58F3D7
:10134000BA17620773078407950720F079F4A6F5AA
:101350000C94190B0EF4E0950B2EBA2FA02D0B0157
:10136000B90190010C01CA01A0011124FF27591BEA
:1013700099F0593F50F4503E68F11A16F040A22FF0
:10138000232F342F4427585FF3CF46953795279561
:10139000A795F0405395C9F77EF41F16BA0B620B60
:1013A000730B840BBAF09150A1F0FF0FBB1F661FA7
:1013B000771F881FC2F70EC0BA0F621F731F841FEA
:1013C00048F4879577956795B795F7959E3F08F010
:1013D000B0CF9395880F08F09927EE0F97958795D2
:1013E00008950E94050A0C94E60A0E94DF0A58F04C
:1013F0000E94D80A40F029F45F3F29F00C94CF0AEC
:1014000051110C941A0B0C94D50A0E94F70A68F338
:101410009923B1F3552391F3951B550BBB27AA27AD
:1014200062177307840738F09F5F5F4F220F331FE7
:10143000441FAA1FA9F335D00E2E3AF0E0E832D0AF
:1014400091505040E695001CCAF72BD0FE2F29D0B2
:10145000660F771F881FBB1F261737074807AB0784
:10146000B0E809F0BB0B802DBF01FF2793585F4FF9
:101470003AF09E3F510578F00C94CF0A0C941A0B69
:101480005F3FE4F3983ED4F3869577956795B795DB
:10149000F7959F5FC9F7880F911D9695879597F9E6
:1014A0000895E1E0660F771F881FBB1F621773075F
:1014B0008407BA0720F0621B730B840BBA0BEE1F74
:1014C00088F7E09508950E94FF0A88F09F5798F0EA
:1014D000B92F9927B751B0F0E1F0660F771F881F39
:1014E000991F1AF0BA95C9F714C0B13091F00E9453
:1014F000190BB1E008950C94190B672F782F8827EA
:10150000B85F39F0B93FCCF3869577956795B39579
:10151000D9F73EF490958095709561957F4F8F4FE8
:101520009F4F0895E89409C097FB3EF490958095ED
:10153000709561957F4F8F4F9F4F9923A9F0F92F99
:1015400096E9BB279395F695879577956795B79517
:10155000F111F8CFFAF4BB0F11F460FF1BC06F5FFD
:101560007F4F8F4F9F4F16C0882311F096E911C00F
:10157000772321F09EE8872F762F05C0662371F030
:1015800096E8862F70E060E02AF09A95660F771F44
:10159000881FDAF7880F9695879597F9089597F938
:1015A0009F6780E870E060E008959FEF80EC089509
:1015B00000240A9416161706180609060895002432
:1015C0000A9412161306140605060895092E0394AC
:1015D000000C11F4882352F0BB0F40F4BF2B11F420
:1015E00060FF04C06F5F7F4F8F4F9F4F089557FD7F
:1015F0009058440F551F59F05F3F71F04795880F81
:1016000097FB991F61F09F3F79F087950895121617
:1016100013061406551FF2CF4695F1DF08C01616C3
:1016200017061806991FF1CF869571056105089474
:101630000895E894BB2766277727CB0197F908958B
:1016400016F00C94D90B0C94D50A68940C94CF0A1C
:101650000E94FF0AA8F39923C1F3AEF3DF93CF935F
:101660001F930F93FF92C92FDD2788232AF021971C
:10167000660F771F881FDAF720E030E040E85FEB65
:101680009FE3883920F0803E38F021968F770E94C2
:101690008509E8E6F0E004C00E948509E5E9F0E08C
:1016A0000E94E70B8B01BE01EC01FB2E6F57710905
:1016B0007595771F880B990B0E94940A28E132E7F1
:1016C00041E35FE30E947F0BAF2D9801AE01FF90D5
:1016D0000F911F91CF91DF910E949C090C94E60A13
:1016E0000E94D80A38F00E94DF0A20F0952311F0FA
:1016F0000C94CF0A0C94D50A11240C941A0B0E9456
:10170000F70A70F3959FC1F3950F50E0551F629F44
:10171000F001729FBB27F00DB11D639FAA27F00D4A
:10172000B11DAA1F649F6627B00DA11D661F829F71
:101730002227B00DA11D621F739FB00DA11D621F56
:10174000839FA00D611D221F749F3327A00D611D73
:10175000231F849F600D211D822F762F6A2F112455
:101760009F5750409AF0F1F088234AF0EE0FFF1F88
:10177000BB1F661F771F881F91505040A9F79E3FDF
:10178000510580F00C94CF0A0C941A0B5F3FE4F3E0
:10179000983ED4F3869577956795B795F795E79535
:1017A0009F5FC1F7FE2B880F911D9695879597F93E
:1017B00008959F3F31F0915020F487957795679574
:1017C000B795880F911D9695879597F90895DF93A2
:1017D000CF931F930F93FF92EF92DF927B018C01C7
:1017E000689406C0DA2EEF010E947F0BFE01E89498
:1017F000A5912591359145915591A6F3EF010E9450
:101800009C09FE019701A801DA9469F7DF90EF9037
:10181000FF900F911F91CF91DF910895EE0FFF1F61
:101820000590F491E02D09940F931F93CF93DF93CC
:101830008230910510F482E090E0E0916704F0912D
:10184000680430E020E0B0E0A0E0309799F4211582
:10185000310509F44AC0281B390B24303105D8F56D
:101860008A819B816115710589F1FB0193838283D4
:10187000FE0111C04081518102811381481759072F
:10188000E0F04817590799F4109761F012960C93FD
:10189000129713961C933296CF01DF91CF911F912F
:1018A0000F9108950093670410936804F4CF2115F5
:1018B000310551F04217530738F0A901DB019A01B5
:1018C000BD01DF01F801C1CFEF01F9CF90936804AA
:1018D00080936704CDCFFE01E20FF31F81939193B4
:1018E0002250310939832883D7CF20916504309164
:1018F0006604232B41F420910E0130910F013093A7
:1019000066042093650420910C0130910D0121158E
:10191000310541F42DB73EB74091100150911101AE
:10192000241B350BE0916504F0916604E217F30780
:10193000A0F42E1B3F0B2817390778F0AC014E5F3F
:101940005F4F2417350748F04E0F5F1F5093660412
:1019500040936504819391939FCFF0E0E0E09CCFAA
:10196000CF93DF930097E9F0FC0132971382128244
:10197000A0916704B0916804ED0130E020E0109779
:10198000A1F420813181820F931F20916504309151
:1019900066042817390709F061C0F0936604E093E4
:1019A0006504DF91CF910895EA01CE17DF07E8F5CE
:1019B0004A815B819E0141155105B1F7E901FB8325
:1019C000EA8349915991C40FD51FEC17FD0761F4C3
:1019D000808191810296840F951FE9019983888304
:1019E000828193819B838A83F0E0E0E012968D915F
:1019F0009C9113970097B9F52D913C911197CD01CA
:101A00000296820F931F2091650430916604281777
:101A1000390739F6309751F510926804109267042F
:101A2000B0936604A0936504BCCFD383C283408186
:101A30005181840F951FC817D90761F44E5F5F4F1E
:101A400088819981480F591F518340838A819B81E6
:101A5000938382832115310509F0B0CFF093680498
:101A6000E09367049ECFFD01DC01C0CF1382128298
:061A7000D7CFF894FFCF70
:101A7600AA55CC330FF00F000100000000006904E6
:101A86008000000000007301D3000001C001310195
:101A96000F0123010D0A0053657474696E67206D8A
:101AA6006573736167653A002C0043414E204255C9
:101AB6005320536869656C6420696E6974206F6B86
:101AC6002100496E7465727275707420636F6E665C
:101AD6006967757265643A2043414E494E54452004
:101AE60052454749535445522056414C5545203D91
:101AF600200020496E69742043414E2042555320F0
:0E1B0600536869656C6420616761696E000058
:107E0000112484B714BE81FFF0D085E080938100F7
:107E100082E08093C00088E18093C10086E0809377
:107E2000C20080E18093C4008EE0C9D0259A86E02C
:107E300020E33CEF91E0309385002093840096BBD3
:107E4000B09BFECF1D9AA8958150A9F7CC24DD24C4
:107E500088248394B5E0AB2EA1E19A2EF3E0BF2EE7
:107E6000A2D0813461F49FD0082FAFD0023811F036
:107E7000013811F484E001C083E08DD089C08234E0
:107E800011F484E103C0853419F485E0A6D080C0E4
:107E9000853579F488D0E82EFF2485D0082F10E0AE
:107EA000102F00270E291F29000F111F8ED06801E7
:107EB0006FC0863521F484E090D080E0DECF843638
:107EC00009F040C070D06FD0082F6DD080E0C81688
:107ED00080E7D80618F4F601B7BEE895C0E0D1E017
:107EE00062D089930C17E1F7F0E0CF16F0E7DF06D8
:107EF00018F0F601B7BEE89568D007B600FCFDCFD4
:107F0000A601A0E0B1E02C9130E011968C91119780
:107F100090E0982F8827822B932B1296FA010C0160
:107F200087BEE89511244E5F5F4FF1E0A038BF0790
:107F300051F7F601A7BEE89507B600FCFDCF97BE46
:107F4000E89526C08437B1F42ED02DD0F82E2BD052
:107F50003CD0F601EF2C8F010F5F1F4F84911BD097
:107F6000EA94F801C1F70894C11CD11CFA94CF0C13
:107F7000D11C0EC0853739F428D08EE10CD085E9AC
:107F80000AD08FE07ACF813511F488E018D01DD067
:107F900080E101D065CF982F8091C00085FFFCCF94
:107FA0009093C60008958091C00087FFFCCF809118
:107FB000C00084FD01C0A8958091C6000895E0E648
:107FC000F0E098E1908380830895EDDF803219F02E
:107FD00088E0F5DFFFCF84E1DECF1F93182FE3DFCA
:107FE0001150E9F7F2DF1F91089580E0E8DFEE27F6
:047FF000FF270994CA
:027FFE00040479
:0400000300007E007B
:00000001FF